{
  "_format": "hh-sol-artifact-1",
  "contractName": "Payments",
  "sourceName": "contracts/Payments.sol",
  "abi": [
    {
      "inputs": [
        {
          "internalType": "address",
          "name": "",
          "type": "address"
        }
      ],
      "name": "balances",
      "outputs": [
        {
          "internalType": "uint256",
          "name": "totalPayments",
          "type": "uint256"
        }
      ],
      "stateMutability": "view",
      "type": "function"
    },
    {
      "inputs": [],
      "name": "currentBalance",
      "outputs": [
        {
          "internalType": "uint256",
          "name": "",
          "type": "uint256"
        }
      ],
      "stateMutability": "view",
      "type": "function"
    },
    {
      "inputs": [
        {
          "internalType": "address",
          "name": "_addr",
          "type": "address"
        },
        {
          "internalType": "uint256",
          "name": "_index",
          "type": "uint256"
        }
      ],
      "name": "getPayment",
      "outputs": [
        {
          "components": [
            {
              "internalType": "uint256",
              "name": "amount",
              "type": "uint256"
            },
            {
              "internalType": "uint256",
              "name": "timestamp",
              "type": "uint256"
            },
            {
              "internalType": "address",
              "name": "from",
              "type": "address"
            },
            {
              "internalType": "string",
              "name": "message",
              "type": "string"
            }
          ],
          "internalType": "struct Payments.Payment",
          "name": "",
          "type": "tuple"
        }
      ],
      "stateMutability": "view",
      "type": "function"
    },
    {
      "inputs": [
        {
          "internalType": "string",
          "name": "message",
          "type": "string"
        }
      ],
      "name": "pay",
      "outputs": [],
      "stateMutability": "payable",
      "type": "function"
    }
  ],
  "bytecode": "0x608060405234801561001057600080fd5b506109fc806100206000396000f3fe60806040526004361061003f5760003560e01c806327e235e3146100445780632b66d72e14610081578063977a767c1461009d578063ce845d1d146100da575b600080fd5b34801561005057600080fd5b5061006b600480360381019061006691906105b2565b610105565b6040516100789190610743565b60405180910390f35b61009b60048036038101906100969190610617565b610123565b005b3480156100a957600080fd5b506100c460048036038101906100bf91906105db565b6102ce565b6040516100d19190610721565b60405180910390f35b3480156100e657600080fd5b506100ef610437565b6040516100fc9190610743565b60405180910390f35b60006020528060005260406000206000915090508060000154905081565b60008060003373ffffffffffffffffffffffffffffffffffffffff1673ffffffffffffffffffffffffffffffffffffffff1681526020019081526020016000206000015490506000803373ffffffffffffffffffffffffffffffffffffffff1673ffffffffffffffffffffffffffffffffffffffff16815260200190815260200160002060000160008154809291906101bb906108b1565b9190505550600060405180608001604052803481526020014281526020013373ffffffffffffffffffffffffffffffffffffffff168152602001848152509050806000803373ffffffffffffffffffffffffffffffffffffffff1673ffffffffffffffffffffffffffffffffffffffff1681526020019081526020016000206001016000848152602001908152602001600020600082015181600001556020820151816001015560408201518160020160006101000a81548173ffffffffffffffffffffffffffffffffffffffff021916908373ffffffffffffffffffffffffffffffffffffffff16021790555060608201518160030190805190602001906102c592919061043f565b50905050505050565b6102d66104c5565b6000808473ffffffffffffffffffffffffffffffffffffffff1673ffffffffffffffffffffffffffffffffffffffff168152602001908152602001600020600101600083815260200190815260200160002060405180608001604052908160008201548152602001600182015481526020016002820160009054906101000a900473ffffffffffffffffffffffffffffffffffffffff1673ffffffffffffffffffffffffffffffffffffffff1673ffffffffffffffffffffffffffffffffffffffff1681526020016003820180546103ad9061084e565b80601f01602080910402602001604051908101604052809291908181526020018280546103d99061084e565b80156104265780601f106103fb57610100808354040283529160200191610426565b820191906000526020600020905b81548152906001019060200180831161040957829003601f168201915b505050505081525050905092915050565b600047905090565b82805461044b9061084e565b90600052602060002090601f01602090048101928261046d57600085556104b4565b82601f1061048657805160ff19168380011785556104b4565b828001600101855582156104b4579182015b828111156104b3578251825591602001919060010190610498565b5b5090506104c19190610503565b5090565b60405180608001604052806000815260200160008152602001600073ffffffffffffffffffffffffffffffffffffffff168152602001606081525090565b5b8082111561051c576000816000905550600101610504565b5090565b600061053361052e84610783565b61075e565b90508281526020810184848401111561054b57600080fd5b61055684828561080c565b509392505050565b60008135905061056d81610998565b92915050565b600082601f83011261058457600080fd5b8135610594848260208601610520565b91505092915050565b6000813590506105ac816109af565b92915050565b6000602082840312156105c457600080fd5b60006105d28482850161055e565b91505092915050565b600080604083850312156105ee57600080fd5b60006105fc8582860161055e565b925050602061060d8582860161059d565b9150509250929050565b60006020828403121561062957600080fd5b600082013567ffffffffffffffff81111561064357600080fd5b61064f84828501610573565b91505092915050565b610661816107d0565b82525050565b6000610672826107b4565b61067c81856107bf565b935061068c81856020860161081b565b61069581610987565b840191505092915050565b60006080830160008301516106b86000860182610703565b5060208301516106cb6020860182610703565b5060408301516106de6040860182610658565b50606083015184820360608601526106f68282610667565b9150508091505092915050565b61070c81610802565b82525050565b61071b81610802565b82525050565b6000602082019050818103600083015261073b81846106a0565b905092915050565b60006020820190506107586000830184610712565b92915050565b6000610768610779565b90506107748282610880565b919050565b6000604051905090565b600067ffffffffffffffff82111561079e5761079d610958565b5b6107a782610987565b9050602081019050919050565b600081519050919050565b600082825260208201905092915050565b60006107db826107e2565b9050919050565b600073ffffffffffffffffffffffffffffffffffffffff82169050919050565b6000819050919050565b82818337600083830152505050565b60005b8381101561083957808201518184015260208101905061081e565b83811115610848576000848401525b50505050565b6000600282049050600182168061086657607f821691505b6020821081141561087a57610879610929565b5b50919050565b61088982610987565b810181811067ffffffffffffffff821117156108a8576108a7610958565b5b80604052505050565b60006108bc82610802565b91507fffffffffffffffffffffffffffffffffffffffffffffffffffffffffffffffff8214156108ef576108ee6108fa565b5b600182019050919050565b7f4e487b7100000000000000000000000000000000000000000000000000000000600052601160045260246000fd5b7f4e487b7100000000000000000000000000000000000000000000000000000000600052602260045260246000fd5b7f4e487b7100000000000000000000000000000000000000000000000000000000600052604160045260246000fd5b6000601f19601f8301169050919050565b6109a1816107d0565b81146109ac57600080fd5b50565b6109b881610802565b81146109c357600080fd5b5056fea264697066735822122064453921094ded08f232c382e20c7c1b1d044317a11ef2d07b571d71536350b664736f6c63430008040033",
  "linkReferences": {},
  "deployedLinkReferences": {}
}